:020000040000FA
:100000000212FF022003FFFFFFFFFF02200BFFFF92
:10001000FFFFFF020E61FFFFFFFFFF02201BFFFF3C
:10002000FFFFFF022023FFFFFFFFFF02202BFFFF48
:10003000FFFFFF022033FFFFFFFFFF020EA4FFFFC1
:10004000FFFFFF022043FFFFFFFFFF02204BFFFFE8
:10005000FFFFFF022053FFFFFFFFFF02205BFFFFB8
:10006000FFFFFF022063FFFFFFFFFF02206BFFFF88
:10007000FFFFFF022073FFFFFFFFFF02207BFFFF58
:10008000FFFFFF022083FFFFFFFFFF02208BFFFF28
:10009000FFFF70DFFFFF040000000002000000C847
:1000A0000300030369A5020269A501000000000026
:1000B00004003273000074F8121046900393E0605D
:1000C0001590030274FEF0900304744DF0A37405C0
:1000D000F07A011206857F0102116374F71210464F
:1000E00074FF12126B7E00801F851882851983E0D1
:1000F00064FE70069003877401F085188285198369
:10010000E0F8900384E068F07C017D00AA18AB1948
:10011000120E1C8B09EA450970030201F38518824F
:10012000851983E064EF70027E07E0C0E0900387EA
:10013000E0FA900385E0F8EA28F8E43400F9740264
:1001400028F582740339F583D0E0F0900387E060EE
:100150009814600E14602C14603C14605214606893
:100160008098900384E4F0851882851983E09003D9
:1001700086F0C394809003874004E40200F974027F
:100180000200F9851882851983E0900382F09003BC
:100190008774030200F9851882851983E090038330
:1001A000F0900386E0601990038774040200F990D0
:1001B0000385E004F0F8900386E06860030200FA2B
:1001C00090038774050200F9900385E4F09003879B
:1001D000F0900384E0F8851882851983E068600355
:1001E0000200FA900382E0644D60030200FA1203F9
:1001F000288002EEF974011212377F020211637433
:10020000F712104674FB12126BEAFEEBFF7508043E
:1002100075090078081212CF74021212E87A907BE6
:10022000007904120EC574021212371206771213E7
:1002300039E0687003A3E06970128518828519831C
:10024000E0F47003A3E0F4600302030874041212E4
:10025000E01206DD8A088B09A808A90974021213A6
:1002600039E8F0A3E9F07404121339E06008790169
:100270001200B6020321851882851983E068700395
:10028000A3E0697076851882851983E0F47003A372
:10029000E0F4701974021213397410F0A37420F092
:1002A0008518828519837410F0A37420F0750801F5
:1002B00075090078081212CF74021212E87A247BB2
:1002C00008120F49740212123775080478081212C6
:1002D000CF74021212E87A907B007904120EC57472
:1002E00002121237120677121339E0687003A3E086
:1002F000697004790280067904800279031200B6DD
:100300008E828F83741E80058E828F83E4F01206A6
:1003100077121339E0687003A3E0697004790180F3
:1003200002790074050201F774ED12104674F81298
:10033000126B900307E0FD900306E0FCFAEDF8E491
:10034000C8F9EA28FEE93408FF751001750B00753D
:100350000A068E088F0974027808121296C395084F
:10036000F8E49509F9740228F50E740339F50F8E37
:10037000088F09740978081212F0E508F511EE24C7
:1003800010F508E43FF509EEF50CEF5401F50D907A
:100390000383E014605914700302046414700302B0
:1003A00004DF14601024FE700302059A1470030227
:1003B000064A02065A750A03794E120C5B9003072F
:1003C00012066D7402F0A3744012066B74081206D4
:1003D0006BF0A3F07418C3940704F510AA10A90BCE
:1003E000120685A90A74081212377F0C0211637570
:1003F0000A04794E120C5BEE450D7005A911120F1F
:10040000AFC3EE9425EF9408503CC3E5089424E56F
:100410000994084031E50E2496F8E50F3420F98858
:10042000828983E0701BA3AA82AB83E070139003E0
:10043000887401F08882898374A5F08A828B838016
:1004400004900388E4F0750810750900780812120A
:10045000CF7C087D03EEFAEFFB120F4974021212F3
:10046000370203DC750A05E511C394794006750B64
:10047000010203DC75124075130078121212CF7C52
:10048000097D037402780C121296AA0CAB0DA91107
:10049000120EC57402121237900307E0A3F0900306
:1004A00006E0A3F0751043C3EE9425EF94084003D3
:1004B0000203DCC3E5089424E50994085003020311
:1004C000DC900388E070030203DCE50E2497F8E576
:1004D0000F3420F988828983E4F0A3F00203DC75ED
:1004E000080475090078081212CF74021212E87A13
:1004F000907B007904120EC5740212123774021236
:100500001339E0F8A3E0F9851882851983E0687053
:1005100003A3E069851882851983700BE0F47003EA
:10052000A3E0F470578009E0F47003A3E0F4700DC9
:100530008518828519837410F0A37420F012067751
:10054000121339E8F0A3E9F075080178081212CF08
:1005500074021212E87A247B08120F4974021212F4
:100560003775080478081212CF74021212E87A90D4
:100570007B007904120EC57402121237120677122C
:100580001339E0687003A3E0697006750A0102037D
:10059000DC750A02750B070203DC900391E060072B
:1005A000640260030203DCEDFF7A01790012068524
:1005B000E0600302063E8003120D1C120D26E97056
:1005C000F7740412133912065F7404121339780891
:1005D00012131D85080C85090D850A0E850B0F90D9
:1005E00005A2780C1212BC7404121339780C121381
:1005F0000EE5084509450A450B70CE8EC2E5C55487
:10060000E04FF5C5740412133912065F7404121317
:1006100039780812131D85080C85090D850A0E8589
:100620000B0F9005A2780C1212BC740412133978C7
:100630000C12130EE5084509450A450B70CE7A01E8
:10064000790012068579080203E5EC900393F070B7
:10065000030203DC750A090203DC79060203E5E400
:10066000F0A37426F0A3E4F0A3F022F0A3E4F0A337
:10067000F0A3F0A3F0A322851882851983E0F8A3E4
:10068000E0F974022274F8121046EAFE900305E0C5
:10069000D2E7F0E9A3F0EE900303F08E0874042A89
:1006A000FE7C028004E062080CECFA3395E0FB74F7
:1006B000022AF58274033BF583EEF8C3EA98EB94C3
:1006C00000A2D265D03340DDE508F074012A0C3376
:1006D00095E0FD7A027B03120E4C0200D674E912FB
:1006E00010467582007583FE1211FE8A168B1775EF
:1006F00014007515008A828B83E4F0900391E070FA
:1007000006D2AAD2AF80046402700579001200B646
:10071000750C00750D20750E00750F00900391E0AB
:10072000600464027015120D1C1200DBE9F87409F4
:1007300068600302080D79001200B675080075099B
:100740000278081212CF74021212E8850C08850D87
:1007500009AA08E5095407FB850E0A850F0B740BDF
:100760007808121252A908120EC574021212377EAE
:10077000007F009005AAC0828E10EFF5113395E03E
:10078000F512F513850C08850D09850E0A850F0BEA
:10079000780879101212A99005A678081212BC7573
:1007A0008305D08278081211DF501D8518828519C3
:1007B00083E5822EF582E5833FF583E0F9AA14AB49
:1007C0001512083C8A148B150EEE70010FC3EF94BE
:1007D0000240A09005AE780C1212BC9005B2780CC5
:1007E0001211DF400302071C7900AA14AB1512088E
:1007F0003C790012083C8B15900391E07004C2AF65
:10080000C2AAEA451570277AA57BA58021E8700366
:1008100002073B740668700302073B7407687003A5
:1008200002073B8516828517837401F080BA7582B2
:10083000007583021211FE7F10021163C008C00907
:100840007C088A088B09740F78081212F0E508F802
:10085000EA25E0FAEB33FBE9A2E7500474014AFA17
:10086000E8A2E0500874216AFA74106BFBE9C33304
:10087000F91CEC70CDD009D0082274F8121046781B
:10088000007900802274942EF582E43403F583E02D
:100890008A828B83F09004141209FA4005900414A4
:1008A000E4F008E8700109900414E0FEA3E06E6033
:1008B00007C3E89CE99D40CDE8FAE9FB7F010211FE
:1008C0006374F7121046900498E0F509A3E0F50868
:1008D000F8E509C398F895E0F9E508C39509E850EB
:1008E0000B120ADC701178007900801B247F500104
:1008F00009C39CE99D50EF7A007B008041E004F041
:10090000D2E908E8700109C3E89CE99D502C8A826D
:100910008B83E0C0E0900499E0FE74182EF582E429
:100920003404F583D0E0120ACC90049AE4F09004E9
:1009300099E0C3947F40C6E480C5E8FAE9FB7F02F2
:10094000021163C082C083C2E9900498E0F8A3E07A
:10095000686017741828F582E43404F583E0F5C163
:10096000900498120AF34002E4F0020D3A74F8126F
:1009700010467800790090051DE07055A3E0705195
:1009800075F900C28FC284A28340FCA28F4004A2EA
:100990008350F8AEF9C28FA2835004D2848032EE25
:1009A000C0E0E0FE1209EFD0E0F090051E120AF35D
:1009B00040D9E4F080D51209EFE08A828B83F09071
:1009C000051D1209FA400590051DE4F008E87001C4
:1009D0000990051DE0FEA3E06E6007C3E89CE99D59
:1009E00040D4E8497006E4F090051DF00208B874A0
:1009F0009D2EF582E43404F58322E004120AD0C36C
:100A000094802274F81210469005A0E0FEF890053C
:100A10009FE0FFEEC39FE0500DC398F895E0F912F8
:100A20000ADB70188012C398F895E0F9E8247F502B
:100A30000109C39CE99D4004EC4D70077A007B00DE
:100A4000020AC98A828B83E0F5F9A3AA82AB837874
:100A50000179008008E004F008E8700109C3E89C0F
:100A6000E99D50278A828B83E0C0E09005A0E0FEDC
:100A7000741F2EF582E43405F583D0E0120ACC9081
:100A800005A0E0C3947F40CDE480CCC28FA2834018
:100A9000FCC284A28F4004A28350F890059F120AE2
:100AA000E6E0F5F9C28F90059FE0FAA3E06A9005B1
:100AB0009F7005120AE68005120AF34002E4F0A2D4
:100AC0008350D0D284E8FAE9FB0208BC120AD02293
:100AD000F08A828B83A3AA82AB8322E824FF18E9E1
:100AE00034FFF9E84922E0FA741F2AF582E434055C
:100AF000F58322E004F0C394802274FB12126B7E13
:100B0000009005CA780812131D9005CA7401F0A35D
:100B1000F0A37469F0A374A5F09005B678081212DA
:100B20008170047E0180159005BA780812128160E8
:100B300008E59D541864107003022000120C81EE29
:100B4000A2E05003020BFEAA18AB191201FFE970D4
:100B500003020BFE851882851983E0C3943C500C78
:100B6000E0F8743CC398FA95E0FB80047A007B00BF
:100B7000120D3FE97003020BFE900391E0640170D7
:100B80000C75F800C2AB539AF7D2EA805E7907126F
:100B900000B68003120D1C120D26E970F7740112C5
:100BA0001339E4F0A37426F0A3E4F0A3F074011267
:100BB0001339780812131D85080C85090D850A0E56
:100BC000850B0F9005A2780C1212BC740112133918
:100BD000780C12130EE5084509450A450B70CE75D1
:100BE0008600C2AAC28B539AFBC2E990000174CD61
:100BF000F0022000C2AF75C9AB75C95B80FE7508F5
:100C000000750900750A00750B00900391E0701BD8
:100C1000D2AAD2AF79051200B6E07003120D1C12F1
:100C200000DBE9F8740968700980E9794E120C5B01
:100C300080ED74016870E2E07017120D1C9005BE23
:100C400078081212BC9005C278081211DF50EBC26E
:100C5000AAC2AF75C9AB75C95B80FEC082C083787C
:100C6000109005A1E0C399501575B60FE5B4A2E741
:100C700050FAE5BBC39940F118E870EDE9F0020DB8
:100C80003AC082C08353BEFBE59DA2E650FA0078CD
:100C9000F8790100120ADB70FA75C6807480659ECF
:100CA00070FA43BE049062707408F0794A120C5BCB
:100CB00090000174F5F07403F5D575D489A2A0E411
:100CC00033900391F0A2E05029D28453F3F753F309
:100CD000EF53FDF743FD10538FF753F7DF43FC202D
:100CE00043F10253F5DF75F82043F4F0D2FED2ABA6
:100CF000802853FF3F85FFFF53F1FE43F30C53F26F
:100D0000F375868075C48090049BE4F0A3F075C2EF
:100D1000D875C50B75C402438640801E8003120936
:100D200043A2E940F922C082C083900498E0F8A36E
:100D3000E0686004790180027900D083D082227457
:100D4000F112104674FF12126B7E00900391E06462
:100D500001706CC2849003927401F07508388E099A
:100D60008E0A8E0B7C017D00AA18AB19120E1C8B0B
:100D70000DEA450D6018851882851983E0641060BE
:100D80002DE064EF70088E088E098E0A8E0B8508A0
:100D90000C85090D850A0E850B0F9005A2780812A7
:100DA00012BCE50C450D450E450F70347E019003D5
:100DB00091E064017056D284900392E4F08051D2A5
:100DC000AAD2AF8A088B09E4F50AF50B9005C6781C
:100DD0000C12131D7808790C120FC679061200B692
:100DE000900391E06003020D64120D1C1200DBE918
:100DF000F8740968700779061200B6809174076864
:100E00006084E8608974066870A48082C2AFC2AA58
:100E1000EEF974011212377F08021163C082C08399
:100E2000900391E0700512087A801E900392E060B2
:100E300015A28F500BE5F98A828B83F07A0180022C
:100E40007A007B00800312096D020D3AC082C083D4
:100E5000900391E070051208C18003120A03020D8D
:100E60003AC0E074F21210AC900001E064CD70055D
:100E7000122013802AE064F57024E5C1C28BC0E023
:100E8000900415E0F8749428F582E43403F583D0D7
:100E9000E0F0900415120AF34005E4F08001007FB1
:100EA0000102110BC0E074F21210AC900001E0647A
:100EB000CD700512203B800BE064F57005120943EC
:100EC00080010080DA74F6121046890A740F550A00
:100ED000F508750900740B7808121296EA2400F8D8
:100EE000EB3480F9E82400E93509F985C709A2AF98
:100EF000E433F508C2AFE50AC4540FFAE5C754F865
:100F00004AF5C7740A121339E0FAA3E0FB801C8883
:100F1000828983E08C828D83F088828983A3A88272
:100F2000A9838C828D83A3AC82AD83EAFEEBFFEEB6
:100F300024FF1AEF34FFFBEE4F70D48509C7E50894
:100F4000A2E092AF7F0302116374F7121046ED9096
:100F50000389F0ECA3F0A37462F0A37473F0A3E030
:100F6000541FF07409121339E0F508A3E0F509E500
:100F700008333354FC90038EF0740678081212F094
:100F8000E50890038DF090038F7412F0A37442F083
:100F900075D1FE75D601EA906271F0EBA3F0906214
:100FA00070E0D2E1F0E0A2E740FB7F02021163C0F3
:100FB00082C083E9C333906272F0906270E0D2E045
:100FC000F0D083D08222080808EAC0E0EBC0E086B7
:100FD000F0E7A4FA180986F0E7A42AFA180986F0BF
:100FE000E7A42AFA180986F0E7A42AFA1986F0E796
:100FF000A4FBE5F02AFA190886F0E7A42BFBE5F03C
:101000003AFA190886F0E7A42BFBE5F03AFA18182B
:101010000986F0E7A4C5F02BFBE43AFA1908E7C506
:10102000F0C6A426F6E5F03BFBE43AFA1886F0E7B2
:10103000A4F6E5F00826F6E43B08F6E43A08F6D014
:10104000E0FBD0E0FA222518C582C0E0E51934FFA4
:10105000C583C0E0E518C3958224F910AF088583E5
:10106000198582188008858319858218D2AFCEF041
:10107000A3E520F0A37808E608F0A3DEFAEFF0A3DA
:10108000E58124FBF8E608F0A3E608F0A30808E6EB
:1010900008F0A3E608F0A315811581D0E0FED0E0AA
:1010A000F815811581E8C0E0EEC0E022C0D0251817
:1010B000C582C0E0E51934FFC583C0E0E518C395DB
:1010C0008224F310AF0885831985821880088583F0
:1010D00019858218D2AFC8F0A3E9F0A3EAF0A3EB18
:1010E000F0A37908E709F0A3D8FAECF0A3EDF0A398
:1010F000EEF0A3EFF0A3D0E0F0A3D0E0F0A3D0E0B7
:10110000F0A3E520F0A3E5F0F0A32285198385186C
:1011100082E0C0E0A3E0F9A3E0FAA3E0FBA3780833
:10112000E0F608A3DFFAE0FCA3E0FDA3E0FEA3E005
:10113000FFA3E0C0E0A3E0C0E0A3E0F5D0A3E0F5AA
:1011400020A3E0A3F5F010AF0885831985821880ED
:1011500008858319858218D2AFD082D083D0E0F879
:10116000D0E032851983851882E0A3FEE0A3F52044
:101170007808E0A3F608DFFAE0A3FFE0A3C0E0E010
:10118000A3C0E0E0A3C0E0E0A3C0E010AF08858208
:10119000188583198008858218858319D2AFD0837A
:1011A000D08222E490030278A179038002F0A3D8D0
:1011B000FCD9FA7AA27B0590008E782979018015F6
:1011C000E493A3AD82AE838A828B83F0A3AA82AB21
:1011D000838D828E83D8E9D9E7120AFA121343C0AD
:1011E00008C3E096F50808A3E096420808A3E09635
:1011F000420808A3E09645087001D3D00822C582B2
:101200002518C582C583351910AF07F519858218D1
:101210008007F519858218D2AFC583222518F5827B
:1012200010AF08F518400C15198008F51840021584
:1012300019D2AF8519832200C0D0251810AF08F548
:1012400018500C05198008F51850020519D2AFD0B6
:10125000D0226016080808C6C313C618C613C618DD
:10126000C613C618C613C6D5E0EA22251810AF0863
:10127000F518400C15198008F51840021519D2AF61
:1012800022E066701008A3E066700A08A3E06670AA
:101290000408A3E06622700422600D18C6C333C69A
:1012A00008C633C6D5E0F41822E627F60809E63763
:1012B000F60809E637F60809E637F622E026F608CA
:1012C000A3E036F608A3E036F608A3E036F622746B
:1012D000028000C0E0F40412121CD0E012132C2291
:1012E0002518FAE43519FB222518FCE43519FD22EE
:1012F000600C08C6C313C618C613C6D5E0F4227521
:10130000D00075813F7518027519030211A3E6F02C
:1013100008A3E6F008A3E6F008A3E6F022E0F6084A
:10132000A3E0F608A3E0F608A3E0F622CAC0E0E6D0
:10133000F0A308DAFAD0E0FA222518F582E435198C
:10134000F5832200000080FBFFFFFFFFFFFFFFFF90
:10135000FFFFFFFFFFFFFFFFFFFFFFFFFFFFFFFF9D
:10136000FFFFFFFFFFFFFFFFFFFFFFFFFFFFFFFF8D
:10137000FFFFFFFFFFFFFFFFFFFFFFFFFFFFFFFF7D
:10138000FFFFFFFFFFFFFFFFFFFFFFFFFFFFFFFF6D
:0A1FF600CA05094338860000000008
:020000040003F7
:01FFF000F020
:020000040000FA
:10200000022CA20221F9FFFFFFFFFFFFFFFFFFFFEE
:10201000FFFFFF02221BFFFFFFFFFFFFFFFFFFFF8E
:10202000FFFFFFFFFFFFFFFFFFFFFF022A92FFFFFF
:10203000FFFFFF02295BFFFFFFFFFF022270FFFF90
:10204000FFFFFF02286CFFFFFFFFFFFFFFFFFFFF07
:10205000FFFFFF022139FFFFFFFFFFFFFFFFFFFF31
:10206000FFFFFFFFFFFFFFFFFFFFFFFFFFFFFFFF80
:10207000FFFFFFFFFFFFFFFFFFFFFFFFFFFFFFFF70
:10208000FFFFFF02218DFFFFFFFFFFFFFFFFFFFFAD
:10209000102010200196511800020000B5300000F9
:1020A00000004F3033318530FD30000079300000C2
:1020B0000000000000000000000000000000000020
:1020C00000000000000006FFFFFF01010400FA18F5
:1020D000000000E8030000FFFF751903E80300009B
:1020E00064006400B801A0BB0D00A0BB0D0002029B
:1020F000000800000502070401051E020514020184
:102100003C0A0A01080803B80B02803E0102FEFFE8
:10211000E8030A050001FFFF0A1401E001010503BD
:102120000101FF0F10FEFFD24C00000000444B00E5
:10213000000000FF000000FF00C0E074F21225B8AC
:10214000A2AFE433F508D2AFAFA7AEA1EE5F541053
:102150006006122DD975A1EFEE5F54086008122DAC
:10216000DF75A1F78023EEA2E092F0EFA2E082F00B
:102170005017906198E0F890061AE0C398A2D265D3
:10218000D0335002E8F075A1FEE5088063C0E0742A
:10219000F21225B8A2AFE433FED2AF9061A4E0F80A
:1021A000759B00E59158540860087591F7122E2729
:1021B0008023E59158541060087591EF122E2D8000
:1021C00014E591A2E092F0E8A2E082F05007E0C2AC
:1021D000E0F0122F839061A3E0F8E5E95854046021
:1021E0000E122F5975E9FB906193E0A2E640F2EEE2
:1021F000A2E092AF7F01022617C0E074F21225B868
:10220000A2AFE433FED2AF9061A5E0F8E5BF585429
:1022100004600675BFFB122F9B80D4C0E0C0D0E8DD
:10222000C0E0E9C0E0C082C083A8C1E8C0E090057A
:1022300086E0F8740528F582E43405F583D0E0F0F3
:10224000900585E0F8A3E0687006E595900588F0B4
:10225000900586E004F0C394804002E4F0A374C6C5
:10226000F0D083D082D0E0F9D0E0F8D0D0D0E03206
:10227000C0E074F21225B8900609E0F8A3E0687097
:102280001A539AFBA37401F090060EE070347A7032
:102290007B171231F9D2FEC2938027C2FED293C2BD
:1022A000E9900609E0F8740128F0748928F582E4C1
:1022B0003405F583E0F5C1900609E0C3948040023F
:1022C000E4F07F01022617C3E498F8E499F9122399
:1022D000088026C3E49AFAE49BFBE920E7E912238D
:1022E00008E498F8E499F922C3E498F8E499F9121B
:1022F0002308E498F8E499F9C3E49AFAE49BFB22F2
:10230000EB20E7CFE920E7E0B90010BB0008E88A3E
:10231000F084F8AAF022E4FBC8FA22EB70227B10CA
:10232000C833C8C933C9335007C39AC3DBF2800628
:102330009A50012ADBEAC833F4C8C933F4C9FA2237
:1023400075F008E4C833C8C933C933C99AC99B506A
:1023500004C92AC93BD5F0ECFBC833F4C8E4C9FA78
:102360002274F512255274FA122B2575080475098A
:10237000007808122A497404122AEF7AF87B077948
:10238000031247B97402122A779080BB7808122C86
:10239000B27402122D337808122B5070487508025F
:1023A0007509007808122A497402122AEF7AF67B1E
:1023B0000779031247B97402122A778518828519A2
:1023C00083E0F47003A3E0F4601B85188285198311
:1023D000E0F8A3E08882F5837402F0A3F0A37469A7
:1023E000F0A374A5F0C2AF75D69F02000074061268
:1023F0002A777F040227ED080808EAC0E0EBC0E076
:1024000086F0E7A4FA180986F0E7A42AFA180986E4
:10241000F0E7A42AFA180986F0E7A42AFA1986F048
:10242000E7A4FBE5F02AFA190886F0E7A42BFBE500
:10243000F03AFA190886F0E7A42BFBE5F03AFA180F
:10244000180986F0E7A4C5F02BFBE43AFA1908E76F
:10245000C5F0C6A426F6E5F03BFBE43AFA1886F090
:10246000E7A4F6E5F00826F6E43B08F6E43A08F6B9
:10247000D0E0FBD0E0FA22E4CFC0E0E4CEC0E0E45C
:10248000CDC0E0E4CCC0E075F020E626F608E633E7
:10249000F608E633F608E633F6181818EC33FCEDC8
:1024A00033FDEE33FEEF33FFC3EC9709ED9709EEF2
:1024B0009709EF97191919400FFFEC97FC09ED9751
:1024C000FD09EE97FE191906D5F0BFECF709EDF7F7
:1024D00009EEF709EFF7191919D0E0FCD0E0FDD0AB
:1024E000E0FED0E0FF222518C582C0E0E51934FFE8
:1024F000C583C0E0E518C3958224F810AF08858332
:10250000198582188008858319858218D2AFCEF08C
:10251000A3E520F0A37808E608F0A3DEFAEFF0A325
:10252000E58124FAF8E608F0A3E608F0A3E608F04F
:10253000A30808E608F0A3E608F0A315811581D0EA
:10254000E0FED0E0F8158115811581E8C0E0EEC00D
:10255000E0222518C582C0E0E51934FFC583C0E03C
:10256000E518C3958224F910AF0885831985821870
:102570008008858319858218D2AFCEF0A3E520F0BC
:10258000A37808E608F0A3DEFAEFF0A3E58124FBC8
:10259000F8E608F0A3E608F0A30808E608F0A3E6CA
:1025A00008F0A315811581D0E0FED0E0F815811563
:1025B00081E8C0E0EEC0E022C0D02518C582C0E0AE
:1025C000E51934FFC583C0E0E518C3958224F310F4
:1025D000AF0885831985821880088583198582183C
:1025E000D2AFC8F0A3E9F0A3EAF0A3EBF0A3790817
:1025F000E709F0A3D8FAECF0A3EDF0A3EEF0A3EF17
:10260000F0A3D0E0F0A3D0E0F0A3D0E0F0A3E52069
:10261000F0A3E5F0F0A322851983851882E0C0E0DD
:10262000A3E0F9A3E0FAA3E0FBA37808E0F608A38F
:10263000DFFAE0FCA3E0FDA3E0FEA3E0FFA3E0C01F
:10264000E0A3E0C0E0A3E0F5D0A3E0F520A3E0A381
:10265000F5F010AF088583198582188008858319E5
:10266000858218D2AFD082D083D0E0F8D0E0321289
:102670002D28B900030226AEE49004CA788879199F
:102680008002F0A3D8FCD9FA7A517B1D902094786F
:10269000A679018015E493A3AD82AE838A828B83F1
:1026A000F0A3AA82AB838D828E83D8E9D9E77582A5
:1026B000E67583FD7405122A2375823F758349747C
:1026C00000122A2375F0108E1A8F1B85821F8583B6
:1026D0001E851882851983E0CEA3E0CF851F8285F1
:1026E0001E83EBC9EAC8EDCBECCAC3E833C8E933B3
:1026F000C9EA33CAEB33CBC3EA9EF51DEB9FF51C49
:10270000B35004AB1CAA1DEC33CCED33CDD5F0DABD
:10271000AE1AAF1B22D083D082ECC0E0EDC0E0E463
:1027200093A3FCE493A3FDED4C600D12282DEC2443
:10273000FFFCED34FFFD80EFE493A3FCE493A3FDE5
:10274000ED4C600D122906EC24FFFCED34FFFD80FA
:10275000EFD0E0FDD0E0FCE493A3C0E0E493C0E060
:1027600022851983851882E0A3FEE0A3F52078086E
:10277000E0A3F608DFFAE0A3FFE0A3C0E0E0A3C017
:10278000E0E0A3C0E0E0A3C0E0E0A3C0E010AF0839
:102790008582188583198008858218858319D2AFB0
:1027A000D083D082022A29D083D082E9C0E0E4938A
:1027B000A3C386F0C5F095F0F908E493A386F0C5AD
:1027C000F095F0700BE493A3C3994005E9048002EF
:1027D000A3E475F002A42582F582E5F03583F58344
:1027E000D0E0F9E493A3C0E0E493C0E0228519832C
:1027F000851882E0A3FEE0A3F5207808E0A3F608A0
:10280000DFFAE0A3FFE0A3C0E0E0A3C0E0E0A3C0E4
:10281000E0E0A3C0E010AF08858218858319800826
:10282000858218858319D2AFD083D08222C0E0C3BD
:10283000E49396087401939618400FE49366700829
:1028400008740193661870007019A3A3C3E49396EB
:10285000087401939618A3A3400DD0E0D0E0D0E017
:10286000022751A3A3A3A3A3A3D0E022C0E074F244
:102870001225B8A2AFE433FED2AFC2C0901A20E056
:102880007004E5D18018E5D1A2E3500675D1F712A6
:10289000485BE5D1A2E4500675D1EF124855EEA28F
:1028A000E092AF7F01022617740480047402800056
:1028B000CCC0E0EDC0E0E518C39CCCAD1950011DC3
:1028C00010AF068C188D1980068C188D19D2AF1296
:1028D00029A5D0E0FDD0E0FC2274028000CCC0E04D
:1028E000EDC0E0E518C39CCCAD1950011D10AF063A
:1028F0008C188D1980068C188D19D2AF122983D0AF
:10290000E0FDD0E0FC22C0E0C0F088F0E493667007
:10291000080874019366187000A8F0A3A3700BD088
:10292000F0D0E0D0E0D0E0022751A3A3D0F0D0E077
:1029300022D083D082CCC0E0E493A36006122A04A4
:102940001470FAE493A36006122B0F1470FAD0E00F
:10295000FCE493A3C0E0E493C0E022C0E074F21270
:1029600025B8758B00C2E8901A20E0700E7A007BC3
:10297000109006B2E0F91232658003123AC37F016B
:10298000022617CAC0E0E493A3C582CCC582C583E2
:10299000CDC583F0A3C582CCC582C583CDC583DAFE
:1029A000E5D0E0CA22CAC0E0E0A3C582CCC582C59A
:1029B00083CDC583F0A3C582CCC582C583CDC58335
:1029C000DAE6D0E0CA227009080808226016181852
:1029D00018C6C333C608C633C608C633C608C633CE
:1029E000C6D5E0EA22C008C3E096F50808A3E09641
:1029F000420808A3E096420808A3E0964508700143
:102A0000D3D00822C0E0E493A3D39C5010E493A356
:102A1000C39C400AD0E0D0E0D0E002294EA3A3A39B
:102A2000D0E022C09FF59FE473D09F22D083D08254
:102A3000C09FE493C0E0740193C0E0740293F59FDB
:102A4000227404800A74038006740280027401C038
:102A5000E0F404122A5CD0E0122CDF222518F58263
:102A600010AF08F518400C15198008F5184002152C
:102A700019D2AF8519832200C0D0251810AF08F5F0
:102A800018500C05198008F51850020519D2AFD05E
:102A9000D022C0E0C0D0E8C0E0A8A8D2AFC2C7E84A
:102AA000A2E792AFD0E0F8D0D0D0E032BB0102E78D
:102AB00022C082C08389828A83BB0003E08002E453
:102AC00093D083D082226016080808C6C313C618A4
:102AD000C613C618C613C618C613C6D5E0EA222503
:102AE00018F8E43519F9222518FAE43519FB2225DE
:102AF00018FCE43519FD22C3E0C696F608A3E0C62B
:102B000096F608A3E0C696F608A3E0C696F622C09D
:102B1000E0E493A36C7009D0E0D0E0D0E002294E4D
:102B2000A3A3D0E022251810AF08F518400C151902
:102B30008008F51840021519D2AF22E76670100818
:102B400009E766700A0809E76670040809E7662263
:102B5000E066701008A3E066700A08A3E0667004DF
:102B600008A3E06622C3E09608A3E09608A3E096D7
:102B700008A3E096A2D265D03322C3E096F008A362
:102B8000E096F008A3E096F008A3E096F022C3E6F2
:102B900097F60809E697F60809E697F60809E69712
:102BA000F622C3E4939608740193960874029396F0
:102BB000087403939622E493F608740193F608745C
:102BC0000293F608740393F622E647F60809E647EF
:102BD000F60809E647F60809E647F622E026F00877
:102BE000A3E036F008A3E036F008A3E036F022E6D2
:102BF00027F60809E637F60809E637F60809E63742
:102C0000F622E657F60809E657F60809E657F608E9
:102C100009E657F622E056F608A3E056F608A3E0C8
:102C200056F608A3E056F622E026F608A3E036F6AC
:102C300008A3E036F608A3E036F622E056F008A333
:102C4000E056F008A3E056F008A3E056F022700426
:102C500022600D18C6C333C608C633C6D5E0F418C3
:102C600022E4C396F608E496F608E496F608E4969D
:102C7000F622C6F4C608C6F4C608C6F4C608C6F4EA
:102C8000C622C3E7960809E7960809E7960809E708
:102C90009622C3E09608A3E09608A3E09608A3E076
:102CA000962275D00075813F7518CA751904000207
:102CB000266FE0F608A3E0F608A3E0F608A3E0F626
:102CC00022600C08C6C313C618C613C6D5E0F4228A
:102CD000E6F008A3E6F008A3E6F008A3E6F022CAAF
:102CE000C0E0E6F0A308DAFAD0E0FA22ECF0A3EDB7
:102CF000F0A3EEF0A3EFF022E0FCA3E0FDA3E0FEE2
:102D0000A3E0FF22E0FAA3E0FBA3E0FCA3E0FD22A6
:102D1000E0F8A3E0F9A3E0FAA3E0FB22E8F0A3E9DE
:102D2000F0A3EAF0A3EBF022E5C754F84401F5C79D
:102D30007901222518F582E43519F58322122A2C0F
:102D40008B9606122A2C129706122A2C42970612EC
:102D50002A2C659706122A2CE59706122A2CF8973A
:102D600006122A2C0E9806122A2C149806122A2CC7
:102D7000259806122A2C9FF903122A2CCBF903124C
:102D80002A2C4DFC03122A2CA4FC03122A2CE4FC4E
:102D900003122A2CF8FC03122A2C11FD03122A2CF0
:102DA00002FE03122A2CB3FE03122A2CC7FE0312C2
:102DB0002A2C9DA506122A2CC1A506122A2CDAA5BA
:102DC00006122A2C0CA606122A2C3CA606122A2C25
:102DD00069A606122A2CCBA606122A2CDAA60612FF
:102DE0002A2CE4A606122A2CF1A606122A2C4298B6
:102DF00006122A2C629806122A2CA19806122A2C56
:102E0000BC9806122A2CDB9806122A2C419906122D
:102E10002A2C4A9906122A2CA79906122A2CCB99F9
:102E200006122A2C8C9A06122A2C999A06122A2CFF
:102E3000AA9A06122A2C2BAF06122A2C43AF06128E
:102E40002A2C6FAF06122A2C9DF905122A2CF1FAB2
:102E500005122A2CFFFA05122A2C12FB05122A2C25
:102E600027FB05122A2C3CFB05122A2C4FFB0512CE
:102E70002A2CC3FB05122A2C28FC05122A2CCAFC7A
:102E800005122A2C8EFD05122A2C9EFD05122A2CD5
:102E9000ADFD05122A2C9BAD06122A2CBFAD0612E1
:102EA0002A2CE7AD06122A2C0FAE06122A2C4D9DB5
:102EB00006122A2C749D06122A2C939D06122A2C87
:102EC000FB9D06122A2C7D9206122A2C969206123F
:102ED0002A2CA29206122A2CB69206122A2CD492DE
:102EE00006122A2CDE9206122A2CE89206122A2CAE
:102EF000FB9206122A2C8C9306122A2CFB930612A4
:102F00002A2C2F9406122A2C7D9406122A2CCA945D
:102F100006122A2CE59406122A2CEF9406122A2C6B
:102F2000159506122A2C7A9506122A2C34AE061212
:102F30002A2C56AE06122A2C2CB006122A2C7AD233
:102F400005122A2CA4D205122A2CC1D205122A2C31
:102F5000D4D205122A2CEAD205122A2C48D3051203
:102F60002A2C7BD305122A2C70D705122A2CD0D8F4
:102F700005122A2C03D905122A2C4DD905122A2C08
:102F8000B9DA05122A2CE1DA05122A2CF6DA051232
:102F90002A2C06DB05122A2C4ADB05122A2CA5DB7B
:102FA00005122A2CB5DB05122A2C56A806122A2C4B
:102FB00070A806122A2C98A806122A2CB1A806126C
:102FC0002A2CD5A806122A2CF3A806122A2C0AA904
:102FD00006122A2C38A906122A2C53A906122A2CCA
:102FE00072AF06122A2C878B06122A2C978B061298
:102FF0002A2C9C8C06122A2CCE8C06122A2CF48C9D
:1030000006122A2C178D06122A2C2E8D06122A2C17
:10301000688D06122A2CD18D06122A2C138E0612C8
:103020002A2C528E06122A2C838E06122A2CBA8E35
:1030300006122A2C008406122A2C658406122A2CD9
:103040000B8506122A2C428506122A2CADF1041299
:103050002A2C44F204122A2C71F404122A2C5CF754
:1030600004122A2CEAF804122A2C56F904122A2CEB
:10307000A5FC04122A2CF0FD04122A2CDBFE0312FC
:103080002A2C26FF03122A2CD3EA05122A2C79EDCA
:1030900005122A2C1EEE05122A2C4AEE05122A2CA5
:1030A00078EE05122A2CADEE05122A2CD5EE05126B
:1030B0002A2C35EF05122A2CDFA005122A2C5EA53A
:1030C00005122A2C46A705122A2C6FA805122A2CB5
:1030D0004FA905122A2C07AB05122A2CAAAC0512FF
:1030E0002A2C76AD05122A2CCAAD05122A2CFFA176
:1030F00006122A2C0AA206122A2C2BA206122A2C0D
:10310000A49305122A2CB99805122A2C279A051285
:103110002A2CE39B05122A2CE09C05122A2C109ED7
:1031200005122A2C289F05122A2C08A005122A2CE9
:1031300025BA04122A2C5DBA04122A2C61C4041286
:103140002A2C42C504122A2C8EC604122A2CD7C758
:1031500004122A2C8DC804122A2C61C904122A2CAC
:1031600048CA04122A2C30CB04122A2CD2CB0412C7
:103170002A2CFCCB04122A2CACCD04122A2C1CCEF7
:1031800004122A2C35CE04122A2C8CCF04122A2C9D
:103190003DD004122A2CBFD004122A2C6BD1041269
:1031A0002A2CDBD104122A2C77D204122A2CF3D237
:1031B00004122A2C11D304122A2C13D404122A2C00
:1031C000C9D404122A2C6FD504122A2C30A406125A
:1031D0002A2C5AA406122A2C6DA506122A2C70A598
:1031E00006122A2C1EFF04122A2C64FF04122A2C19
:1031F000A6FF04122A2CB6FF04122A2CC0FF0412C8
:103200002A2C6B7900122A2CA97900122A2C127A06
:1032100000122A2C2F7A00122A2C487A00122A2C0B
:10322000FA7A00122A2C037B00122A2C487B001207
:103230002A2C7E7B00122A2C957B00122A2C077CDC
:1032400000122A2C947C00122A2CCA7C00122A2CF0
:10325000217D00122A2C857D00122A2CA87D0012C7
:103260002A2C0C7E00122A2C687E00122A2CA37EA7
:1032700000122A2CD87E00122A2CEA7E00122A2C58
:10328000FC7E00122A2C347F00122A2C807F001230
:103290002A2CBE7F00122A2CE8EF05122A2C28F1D6
:1032A00005122A2C4BF105122A2C5CF105122A2C4E
:1032B00051F305122A2C71F305122A2CBF9F061216
:1032C0002A2CF59F06122A2C3DA006122A2C99A121
:1032D00006122A2C008005122A2C318105122A2C74
:1032E0006B8105122A2C2A8305122A2C548305127D
:1032F0002A2CE18505122A2C218605122A2CB88752
:1033000005122A2C4B8805122A2CA38805122A2C78
:10331000468905122A2C7E8905122A2CC08905129D
:103320002A2C2F8B05122A2C818C05122A2CA48E74
:1033300005122A2CD28E05122A2CF98E05122A2C5F
:10334000028F05122A2C528F05122A2CE48F0512A7
:103350002A2CD49205122A2C579305122A2CDFFF0F
:1033600002122A2CF5FF02122A2CE3FB02122A2C4D
:10337000F9FB02122A2C9EFC02122A2CDDFC0212FE
:103380002A2CFAFC02122A2C2BFD02122A2C78FD80
:1033900002122A2CABFD02122A2CE6FD02122A2C64
:1033A000D2FF02122A2C99AA06122A2CEEAA061281
:1033B0002A2C39AB06122A2C86A906122A2CF8A927
:1033C00006122A2C36AA06122A2C77AA06122A2CB2
:1033D000E5DB05122A2CEBDB05122A2C2BDC05126F
:1033E0002A2C1DDE05122A2C4DDE05122A2CBCDEED
:1033F00005122A2C8ADF05122A2CCBDF05122A2C73
:10340000F9DF05122A2C83E005122A2C9AE0051216
:103410002A2CA7E005122A2CB1E005122A2C4DE235
:1034200005122A2C42E305122A2C8BE305122A2CC2
:1034300077F701122A2C8DF701122A2C20F801129D
:103440002A2C4CF901122A2C41FA01122A2CDEFAFC
:1034500001122A2C1EFB01122A2C9CFB01122A2C81
:10346000F9FB01122A2C09FC01122A2C30FC011252
:103470002A2C83FC01122A2CF4FD01122A2CF9FDBE
:1034800001122A2C19FE01122A2CFFDA02122A2C10
:1034900057DB02122A2CFEDB02122A2C73DD0212E9
:1034A0002A2C4DDE02122A2C0ADF02122A2C21DFDE
:1034B00002122A2C70DF02122A2CD4DF02122A2CCC
:1034C00024E002122A2C37E002122A2C98E0021281
:1034D0002A2CF1E002122A2C85E302122A2C89E41C
:1034E00002122A2CC4E402122A2C18E502122A2CF9
:1034F000B5E702122A2CFBE702122A2C6EE8021210
:103500002A2CB8E802122A2C8CE902122A2CCFE9C4
:1035100002122A2CE9E902122A2C30EA02122A2C81
:1035200046EA02122A2CEBEA02122A2CCFEB0212F4
:103530002A2CDAEB02122A2C28EC02122A2C7DEC1F
:1035400002122A2CC4EC02122A2C28EE02122A2C77
:1035500043EE02122A2CC8F002122A2CF6F00212B4
:103560002A2CF5F102122A2C19F202122A2C88F2C6
:1035700002122A2C4BF302122A2C86F302122A2C56
:10358000ECF302122A2C01F502122A2C49F5021240
:103590002A2C5CF502122A2C5FF502122A2C68F5FF
:1035A00002122A2C7AF502122A2C03F602122A2C75
:1035B0002CF602122A2C3FF602122A2C6BF602126B
:1035C0002A2C92F602122A2CB6F602122A2C2FF777
:1035D00002122A2CA1F702122A2CD8F702122A2C46
:1035E000DBF702122A2C0AF802122A2C20F8021207
:1035F0002A2C3BF802122A2C69F802122A2C89F88C
:1036000002122A2CD2F802122A2C0DF902122A2CAC
:1036100014FA02122A2C72FB02122A2C88FB0212C4
:103620002A2C9FFB02122A2CB1FB02122A2CA9ACD5
:1036300006122A2CBAAC06122A2C43AD06122A2CEA
:10364000FAFF01122A2CC8E305122A2C17E40512EE
:103650002A2CB7E505122A2C8BE705122A2CCDE778
:1036600005122A2C98E805122A2CA0E905122A2C0A
:10367000C2E905122A2C1EEA05122A2C9FEA05121D
:103680002A2C254F00122A2C474F00122A2C9F501B
:1036900000122A2CE85000122A2C5E5100122A2C0B
:1036A000DC5100122A2C415200122A2C83520012A3
:1036B0002A2CF25200122A2C9D5300122A2C155447
:1036C00000122A2C5A5400122A2C695800122A2C53
:1036D000705A00122A2CA35A00122A2CF55A0012F2
:1036E0002A2CF85D00122A2C745E00122A2C22600B
:1036F00000122A2C546100122A2C6C6200122A2C0F
:10370000EE6200122A2CCE6300122A2C39640012B9
:103710002A2C4D6400122A2C2F6500122A2C5F6679
:1037200000122A2C7A6800122A2C736A00122A2CA2
:10373000566B00122A2CEC6D00122A2C8D6E001292
:103740002A2C8D6F00122A2CEF7200122A2CFF7285
:1037500000122A2C457400122A2CE27400122A2C22
:103760000C7600122A2C9D7600122A2CCA770012A1
:103770002A2C0F7800122A2CA37800122A2C16D695
:1037800004122A2CB6D604122A2C20D704122A2C72
:1037900039D704122A2CC8D704122A2C0CD80412A8
:1037A0002A2C2BD904122A2C67D904122A2CDAD9F4
:1037B00004122A2C25DA04122A2C84DA04122A2C68
:1037C0002EDB04122A2C17DE04122A2C34DF0412FA
:1037D0002A2CB1DF04122A2C72E104122A2C12E2E4
:1037E00004122A2CB1E204122A2C14E304122A2C0B
:1037F00089E304122A2C98E404122A2C79E5041295
:103800002A2CAFE504122A2CE2E504122A2C96E6B3
:1038100004122A2CC2E604122A2C3DE704122A2C98
:10382000C0E804122A2C3BEA04122A2C90EB041262
:103830002A2C03ED04122A2C0FEE04122A2CB6EEC9
:1038400004122A2C24EF04122A2C3CF004122A2CF5
:10385000ACDA03122A2C17DB03122A2C5FDB0312CB
:103860002A2CA3DB03122A2C0DDC03122A2C56DC93
:1038700003122A2C91DC03122A2C2BDD03122A2C92
:1038800085DD03122A2CDFDE03122A2C68DF0312E7
:103890002A2C92DF03122A2C97E003122A2CA6E18D
:1038A00003122A2CD8E103122A2CC8E203122A2C74
:1038B000D9E203122A2CF1E203122A2CF1E30312BB
:1038C0002A2C0EE403122A2CD3E403122A2CFDE442
:1038D00003122A2C14E503122A2C3AE503122A2C8F
:1038E00071E503122A2C91E503122A2CB8E5031284
:1038F0002A2CD0E503122A2CAAE603122A2C02E76E
:1039000003122A2C78E803122A2C07E903122A2C26
:103910002BE903122A2C42E903122A2C0DEA031286
:103920002A2CB0EA03122A2CD6EA03122A2C06EC1F
:1039300003122A2C25EC03122A2CA6EC03122A2CA3
:1039400013ED03122A2C57ED03122A2CE5ED031276
:103950002A2C50EE03122A2C02EF03122A2CF2F02A
:1039600003122A2CCAF103122A2C1CF203122A2C4D
:1039700016F303122A2C23F403122A2C34F5031213
:103980002A2C42F503122A2C12F603122A2CB2F624
:1039900003122A2CF6F603122A2C0BF703122A2CF8
:1039A0000BF803122A2CAEF803122A2C06F9031284
:1039B0002A2C128F06122A2C4B9006122A2C1191B7
:1039C00006122A2C759106122A2CE99106122A2C2D
:1039D000008006122A2C1E8006122A2C62800612F3
:1039E0002A2C888006122A2CAE8006122A2CC68029
:1039F00006122A2CDE8006122A2CF68006122A2CA9
:103A0000618106122A2CA38106122A2CB881061283
:103A10002A2CBF8206122A2CDA8206122A2CE38272
:103A200006122A2CEC8206122A2CF58206122A2C67
:103A3000FF8206122A2C7C8306122A2CB7F4051268
:103A40002A2CD3F805122A2CEFF805122A2CF4F8A8
:103A500005122A2C6EFE05122A2CE98706122A2C42
:103A6000FF8706122A2C858906122A2CCE89061277
:103A70002A2C3A8A06122A2C2AAC06122A2C568B99
:103A800006122A2C688B06122A2CFBA606122A2C58
:103A9000D89A06122A2C349B06122A2C6A9B0612EC
:103AA0002A2CD39B06122A2CF79B06122A2C0C9C3C
:103AB00006122A2C2C9C06122A2C4C9C06122A2C0C
:103AC0005C9C06122A2C739C06122A2C9F9C0612C0
:103AD0002A2C2A9D06122A2CD69506122A2C008002
:103AE00002122A2C578002122A2CC38002122A2C7E
:103AF0004F8102122A2C058202122A2C4D820212B8
:103B00002A2C668202122A2C898202122A2CAB826B
:103B100002122A2CE98202122A2C388302122A2C41
:103B2000638302122A2CC18302122A2C6884021297
:103B30002A2C108502122A2C8C8502122A2C5986D6
:103B400002122A2CA08602122A2CEC8602122A2C9F
:103B5000748702122A2CAD8702122A2C03880212C3
:103B60002A2C1F8802122A2C4E8802122A2C5A8ACA
:103B700002122A2C888B02122A2CB48B02122A2CB5
:103B8000E88B02122A2C098C02122A2C188C0212A1
:103B90002A2C238C02122A2CD28C02122A2C428D1F
:103BA00002122A2CCD8D02122A2CD58D02122A2C1B
:103BB000428E02122A2C7E8E02122A2C448F02126E
:103BC0002A2C179002122A2C6C9002122A2C0B918C
:103BD00002122A2C659102122A2CAA9102122A2C76
:103BE000439402122A2C869502122A2C70980212F3
:103BF0002A2C549902122A2C389A02122A2C5D9AE5
:103C000002122A2C6E9A02122A2CE09A02122A2CF4
:103C1000779B02122A2CEB9B02122A2CDB9C0212AD
:103C20002A2C009D02122A2C189E02122A2C369E43
:103C300002122A2C529E02122A2CC59E02122A2CF3
:103C4000D49E02122A2C5C9F02122A2C59A0021226
:103C50002A2C66A002122A2C6FA002122A2C51A232
:103C600002122A2C7DA302122A2C8DA302122A2CC6
:103C7000C8A402122A2C47A502122A2C78A60212E6
:103C80002A2CB4A602122A2C8EA802122A2C4BAC83
:103C900002122A2C5FAC02122A2C69AC02122A2CC6
:103CA00073AC02122A2C7DAC02122A2C87AC0212B1
:103CB0002A2CA0AC02122A2CAAAC02122A2C21AD6A
:103CC00002122A2C2CAD02122A2C5BAD02122A2CD5
:103CD00083AD02122A2C8EAD02122A2CF3AD0212F1
:103CE0002A2CFDAD02122A2C08AE02122A2C2CAE70
:103CF00002122A2C50AE02122A2CC2AE02122A2C18
:103D00000BAF02122A2C27AF02122A2C98AF0212F4
:103D10002A2CE4AF02122A2C2DB002122A2C6BB0EE
:103D200002122A2CECB002122A2C93B102122A2C75
:103D300058B302122A2CBDB302122A2CEBB4021281
:103D40002A2C11B502122A2C59B602122A2C93B928
:103D500002122A2C91BB02122A2C5CBD02122A2CC0
:103D6000F5BD02122A2CF6BF02122A2CABC0021299
:103D70002A2CE4C002122A2C54C102122A2C5EC141
:103D800002122A2C87C302122A2C8AC402122A2C5D
:103D9000C7C502122A2C1EC602122A2CC9C602123C
:103DA0002A2C79C802122A2CC6C902122A2CE6C96A
:103DB00002122A2C3BCA02122A2C3CCB02122A2CB9
:103DC00064CB02122A2CC3CB02122A2CBBCC0212C7
:103DD0002A2C32CD02122A2C45CE02122A2CB3CE26
:103DE00002122A2CB2CF02122A2C0CD202122A2C36
:103DF00035D202122A2C9BD302122A2C1DD5021274
:103E00002A2C74D502122A2C22D602122A2CC7D6AA
:103E100002122A2C2AD702122A2CE8D702122A2CA4
:103E20007AD802122A2CD9D802122A2C1BD90212B3
:103E30002A2C4CD902122A2CA3DA02122A2C008036
:103E400003122A2C328003122A2C6B8003122A2C94
:103E5000348203122A2C788203122A2C4E830312F6
:103E60002A2CAD8303122A2CC38403122A2C0F851B
:103E700003122A2C9D8703122A2C818A03122A2CD2
:103E8000C88B03122A2C608C03122A2C6C8C031210
:103E90002A2CB58C03122A2CF78D03122A2CED8EB6
:103EA00003122A2C178F03122A2C6D8F03122A2C2F
:103EB000C68F03122A2C399003122A2C6F920312F8
:103EC0002A2CF19303122A2CDC9403122A2C269616
:103ED00003122A2C5E9803122A2C5B9B03122A2CB5
:103EE0006A9B03122A2CFE9B03122A2CA99C031204
:103EF0002A2CEC9C03122A2C359D03122A2C859D1A
:103F000003122A2CE99D03122A2C5B9E03122A2CF1
:103F1000779E03122A2CA69E03122A2CE59E0312DA
:103F20002A2CE09F03122A2C8FA003122A2C0CA308
:103F300003122A2C3EA403122A2C16A503122A2CA3
:103F400098A503122A2CCDA903122A2CFCA903122E
:103F50002A2C57AA03122A2C8AAA03122A2C02AB53
:103F600003122A2C35AB03122A2C96AB03122A2CEF
:103F7000E6AB03122A2CB3AC03122A2C6CAD03124D
:103F80002A2C30AE03122A2CAAB003122A2C0CB20F
:103F900003122A2C5DB303122A2C81B403122A2C9B
:103FA00084B403122A2CB3B403122A2CABB6031226
:103FB0002A2C6AB703122A2C99B703122A2CB7B8F5
:103FC00003122A2C7FB903122A2C40BB03122A2C7D
:103FD000B0BB03122A2CE2BB03122A2C02BC031230
:103FE0002A2C71BC03122A2C6ABD03122A2C8EBD06
:103FF00003122A2C01BE03122A2C2AC003122A2CD7
:1040000089C003122A2CDDC003122A2C0CC3031210
:104010002A2CEFC303122A2C77C403122A2C5BC567
:1040200003122A2CE5C503122A2CF9C503122A2CE7
:104030000DC603122A2C21C603122A2C35C60312E0
:104040002A2C62C603122A2C92C603122A2C4DC8AF
:1040500003122A2C23C903122A2CC7C903122A2CA3
:104060001CCA03122A2C7FCA03122A2CC8CA0312A4
:104070002A2CEFCA03122A2CB7CB03122A2C5DCCB0
:1040800003122A2CE3CD03122A2C6ECE03122A2C03
:10409000B5CE03122A2C27CF03122A2C7CD0031270
:1040A0002A2C25D103122A2C59D103122A2C71D182
:1040B00003122A2C14D203122A2C90D403122A2C75
:1040C00038D603122A2C56D603122A2C74D6031281
:1040D0002A2C40D703122A2C8EDA03122A2C348180
:1040E00001122A2C768101122A2CE38601122A2C35
:1040F0002F8701122A2C758701122A2CC6880112DB
:104100002A2C2B8901122A2C6F8901122A2CD58A7C
:1041100001122A2C308E01122A2C638F01122A2CB4
:10412000F29A01122A2C829B01122A2C6C9E0112F7
:104130002A2CD19F01122A2C34A001122A2C50A122
:1041400001122A2CBAA201122A2C99A301122A2C9C
:1041500007A601122A2C99A701122A2C2AA80112BB
:104160002A2C49A901122A2CD6A901122A2CE0A92D
:1041700001122A2C08AA01122A2CABAA01122A2CFD
:1041800096AB01122A2C5EAC01122A2CEBAC011268
:104190002A2C01AD01122A2C1EAD01122A2C47AD8A
:1041A00001122A2C74AD01122A2CB8AF01122A2C4C
:1041B0008BB001122A2CCFB001122A2C51B101125E
:1041C0002A2CF2B101122A2C24B201122A2C6BB231
:1041D00001122A2C9EB201122A2CE2B201122A2CC0
:1041E00031B301122A2C36B301122A2C92B30112D8
:1041F0002A2CD6B301122A2CC0B401122A2C25B5C0
:1042000001122A2C83B501122A2C02B601122A2C83
:104210007AB901122A2C7DBA01122A2C13BC011280
:104220002A2C56BF01122A2CF8BF01122A2C41C297
:1042300001122A2CFCC201122A2C3BC301122A2C87
:10424000FFC401122A2C1CC501122A2C25C50112FB
:104250002A2C2EC501122A2C39C501122A2C58C528
:1042600001122A2C7CC701122A2CD9C701122A2C30
:10427000E3C701122A2CEDC701122A2C50C80112E3
:104280002A2CACC801122A2CB9C901122A2C1ACA2C
:1042900001122A2C2BCB01122A2C74CB01122A2CAE
:1042A0003ECC01122A2C55CD01122A2C19CE011216
:1042B0002A2C65CF01122A2C69D001122A2C62D136
:1042C00001122A2C7AD101122A2CB1D101122A2CE6
:1042D000BBD101122A2CC5D101122A2CD0D1011236
:1042E0002A2CEED101122A2C36D201122A2C94D279
:1042F00001122A2CBBD201122A2CCDD201122A2C57
:1043000076D301122A2CAFD301122A2CE0D4011249
:104310002A2C3DD501122A2C2ED601122A2C64D625
:1043200001122A2CD4D601122A2C50D701122A2C81
:10433000D1D801122A2CF8D901122A2CBADA01128A
:104340002A2C88DB01122A2C0DDC01122A2CBCDC61
:1043500001122A2CA4DD01122A2C3DDE01122A2C86
:1043600019DF01122A2C81DF01122A2C40E00112F0
:104370002A2C9CE001122A2C00E101122A2CC6E111
:1043800001122A2CE9E101122A2CA3E201122A2CA3
:10439000C5E201122A2C26E301122A2C56E501124D
:1043A0002A2C4FE601122A2CFBE601122A2C18E9CE
:1043B00001122A2C61E901122A2CACE901122A2CE3
:1043C00008EA01122A2C66EA01122A2C8AEA011252
:1043D0002A2CAEEA01122A2CE3EA01122A2C0BEB5A
:1043E00001122A2C50EB01122A2CAEEB01122A2CBE
:1043F00007EC01122A2C01ED01122A2CADEE01125C
:104400002A2CF2EE01122A2C1BEF01122A2CA4EF07
:1044100001122A2C17F001122A2C25F001122A2C45
:1044200049F001122A2C9FF001122A2CBAF0011235
:104430002A2C75F101122A2CA1F101122A2CE4F187
:1044400001122A2C47F201122A2C57F401122A2CAD
:1044500083F401122A2C3EF501122A2C22F60112B5
:104460002A2CB6F601122A2CFAC705122A2C32C8B9
:1044700005122A2C53C805122A2C95C805122A2C7D
:10448000F9C805122A2C03C905122A2C13C90512D2
:104490002A2C4AC905122A2CF3CC05122A2CBBCE91
:1044A00005122A2C9FD005122A2C41D105122A2C44
:1044B000CBD105122A2C508004122A2CF980041228
:1044C0002A2CD88104122A2CE48204122A2C048378
:1044D00004122A2C268404122A2CD68504122A2C93
:1044E000438604122A2C148704122A2C1A880412D8
:1044F0002A2C928804122A2CCD8804122A2C268970
:1045000004122A2C618904122A2CAA8904122A2C4A
:104510003E8A04122A2CD48A04122A2CA98B041253
:104520002A2C7C8C04122A2C0A8D04122A2C308D01
:1045300004122A2C5D8D04122A2C8E8D04122A2C32
:104540005B8E04122A2C6B8E04122A2CBE8E04124F
:104550002A2CCB8E04122A2CD88E04122A2CE18EFF
:1045600004122A2C458F04122A2CA38F04122A2C01
:10457000EE8F04122A2C099004122A2C3090041277
:104580002A2C4D9004122A2C599004122A2CEA91BC
:1045900004122A2C039204122A2C7F9204122A2C31
:1045A000929204122A2CA29204122A2C46930412EC
:1045B0002A2CB29404122A2CC59504122A2C659632
:1045C00004122A2C6F9604122A2CEE9604122A2C1E
:1045D000FF9604122A2C3E9704122A2C6C97041280
:1045E0002A2C399804122A2C909804122A2CC99843
:1045F00004122A2C1F9904122A2C3D9904122A2CE9
:104600008B9904122A2C569A04122A2CA49A04126A
:104610002A2CF19A04122A2C749B04122A2C9E9B99
:1046200004122A2CD49B04122A2CE39B04122A2C59
:10463000429C04122A2CBA9C04122A2CFB9C0412C1
:104640002A2C4B9D04122A2C769D04122A2C909D14
:1046500004122A2CAA9D04122A2C7F9E04122A2CB2
:10466000899E04122A2CC49E04122A2CD49E041261
:104670002A2CDD9E04122A2C2E9F04122A2C429FE3
:1046800004122A2C64A004122A2C77A004122A2CCB
:104690008CA004122A2C1FA104122A2C93A104120C
:1046A0002A2C38A204122A2C43A204122A2CA6A3D4
:1046B00004122A2CC2A304122A2C0EA404122A2C9F
:1046C0007CA404122A2CAEA404122A2CC8A404121E
:1046D0002A2C28A504122A2CC7A504122A2C12A6BB
:1046E00004122A2C65A804122A2CFDA804122A2CD4
:1046F00074A904122A2CD1AB04122A2CE9AB04129F
:104700002A2CECAB04122A2CF8AB04122A2C0CAC89
:1047100004122A2C14AC04122A2C4BAC04122A2C9E
:104720003FAD04122A2CC9AD04122A2C4BAE041240
:104730002A2CCBAE04122A2CA2AF04122A2CC4AF0E
:1047400004122A2C5DB004122A2CBAB004122A2CAE
:10475000BDB004122A2C2CB104122A2C78B20412F7
:104760002A2C8BB304122A2C16B404122A2C29B535
:1047700004122A2CF0B504122A2C21B604122A2C79
:1047800047B604122A2C50B604122A2C7FB6041203
:104790002A2C2FB704122A2CDFB704122A2C52B865
:1047A00004122A2CF5B804122A2C68B904122A2CF7
:1047B000A7B904122A2CF0B904122A2CA7AB0612AE
:1047C0002A2C1FAF06122A2CDBAE06122A2CC9AEE9
:1047D00006122A2CB9AE06122A2CEA7F00122A2CC5
:1047E000FCFF03122A2C14B006122A2C0DB006125C
:1047F0002A2C1CBA05122A2C69B905122A2C9DB83C
:1048000005122A2CF9B605122A2CC2B605122A2C3A
:1048100094B605122A2C41B605122A2C98B5051219
:104820002A2C00B505122A2CDAB405122A2C8FB4D2
:1048300005122A2C63B405122A2CD7B305122A2C90
:1048400076B305122A2C31B305122A2C859506124F
:104850002A2C4CB205122A2C04B006122A2CF6AFD0
:1048600006122A2CEDAF06122A2CE4AF06122A2CCF
:10487000D8FF04122A2CF7FF01122A2CE7FF01129D
:104880002A2C6AB105122A2C12B105122A2C82B0E8
:1048900005122A2CFDFF01122A2C3DB005122A2CEC
:1048A00021B005122A2CCFAE05122A2C91AE05128A
:1048B0002A2CB8AF06122A2C6BAE05122A2C90AC0B
:1048C00006122A2CEFAD05122A2CC3C705122A2C7A
:1048D0007CC705122A2C1BC705122A2CEEC605120E
:1048E0002A2CC4C605122A2C90C605122A2C68C68A
:1048F00005122A2C08C605122A2CF2C505122A2CEC
:10490000B7C505122A2C2EC505122A2C75C1051211
:104910002A2C33BF05122A2CD4BC05122A2C5CBCCD
:1049200005122A2CFDBA05122A2C0DBC05122A2CC0
:104930009ABB05122A2C5BBB05122A2C278B06007A
:10494000000080FBE4738F000100141A870001004F
:10495000131A35000400991D250002009D1D260034
:1049600002009F1D27000200A11D28000100AB1DB1
:1049700029000100AC1D84000400AD1D860001006B
:10498000B11D2A000100B21D2B000100B31D2C0037
:104990000100B71D2D000800F7192E000100B81DF9
:1049A0002F000100B91D30000100BA1D31000100C7
:1049B000BB1D32000100BC1D33000100BD1D3400D1
:1049C0000100BE1D36000100FF1938000100BF1DA7
:1049D00039000100B61D83000200D31D63000100F1
:1049E000101A64000100B41D65000100B51D6D00C2
:1049F0000100111A71000800EF1966000100D21DB4
:104A000043000100C31D44000200C41D4500010015
:104A1000C61D46000200C71D47000800081A4800CE
:104A20000100C91D4B000100CA1D04000100D51D75
:104A3000A1000100D81D37000100D71D880001002A
:104A4000D61D3C000100001A3D000100C01D4900B8
:104A50000200CB1D67000100121A4D000200CD1D9F
:104A60004E000100CF1D4F000200D01D3E0001008E
:104A7000071A51000100011A52000100C11D530024
:104A80000100C21D54000100021A000000000000D5
:104A9000000136360101000102010001030100019D
:104AA0000401060605020000070100340801000F9A
:104AB000090401010D0100FF0E08000017020000AB
:104AC000190100FF1A0100011B0100FE1C01000872
:104AD0001D0200001F010001200100012102000051
:104AE0002301000F24020000260100012701000815
:104AF000280200FF2A0100072B0102402C010000C0
:104B00002D0100012E0100012F0100FF30010B1DBE
:104B1000310800003A0100083B01000F3C01000190
:104B20003D0100FF3E040000420400004604000076
:104B30004A0400004E040000520400005604000025
:104B40005A0400000103710301030103010301037F
:104B50000103220302030103100300030003000307
:104B600000030003000300034203000324030603C1
:104B70000003000304031203250323032503230377
:104B800004030403000300030003440300030003C1
:104B9000230300036503210035038103000305039C
:104BA0000003000300030003250323030101710137
:104BB0000101010111010101310101010101800126
:104BC000100161013B001400630173017201620175
:104BD00043010001130106013D01350004011201EA
:104BE000000100010001000104010401330133014F
:104BF0003C01440132013600000100016501000161
:104C000035008101000105018201830100010302D9
:104C100071023001600211027002010202020202FE
:104C20008002100261023A004100630273027202C4
:104C30006202430200021302380000020002040272
:104C40001202000200020002000204020402370005
:104C500037003C02440200023900000200026502F3
:104C60000002350281020002050282028302000274
:104C700003047104020460041104700402040204B9
:104C800001040204100461040004140463047304A6
:104C900072046204430400041304060400040004C4
:104CA000040412040004000400040004510464001D
:104CB0000004000400044404000400040004000490
:104CC00065040004350481046400050400048304C1
:104CD0000004030071003001600011007000310217
:104CE00020035004800010006100000014006300E5
:104CF0007300720062004300000013000600000011
:104D00000000040012000000000000000000040089
:104D10000400370037003C0244000000000000009F
:104D20000000650000003500810000000500000063
:104D30008300000036000100060000000F000000A4
:104D40000000000000000000000003FFFF0000045E
:104D500003FFFF0000FFFF0FF4010005C404032060
:104D60000001001B0B000000000000000003010F09
:104D70000000000000000000000000000000000033
:104D80000000000000000000000000000000000023
:104D900000000000BD3713001B371F0021371F80A4
:104DA00027370100BD370200A3360300A9360400EF
:104DB000AF360500B5360600C1363000DF363100AB
:104DC000D9363200EB363300F1363500F736340091
:104DD000FD363600033711000F3714001537150064
:104DE000D336FFFF00000A000000020000000400AC
:104DF000000008000000100000002000000040003B
:104E0000000080000000000100000002000000041B
:104E1000000000080000001000000020000000401A
:104E200000000123410659410853410B714110ED27
:104E30003D0A8341022941054741072F410C0B419F
:104E40000D174164C53BFF000007ECFDFDFDECDCE8
:104E5000DCCCBCACAC9C9C8C7C7C6C6C5C5C5C4CA2
:104E60004C3C3C2C2C1C1C00160F00000B150B029C
:104E70000002220F3300000E01030507090B0D0F7E
:104E800000020406080A0C0D5A6967426565416C08
:104E90006C69616E63653039140AE5D5C5B5A5A5A1
:104EA00095858575650001191618161618230300D7
:104EB000303016181920231A1C1E303030171819DC
:104EC00021301B1D1F3000393D3F373C3C362C4400
:104ED0002D00034A49434E181A2505020C0E020BF9
:104EE000040B0A0708000F02040201010101090274
:104EF000E803000000BE040A494E00000000984E7E
:104F00000E00FA067F00E803FF1E1E0805010401DB
:104F1000000C011E0C080903010C03050811030015
:104F2000FF0A0C0400C082C08390196DE4F0A3F066
:104F30007C437D1B7ADA7B181233C7123BF5123E95
:104F40003B123BFB02644674F51224E674F5122B07
:104F500025E9FF8A08EBFE8C09E9705B74026A7030
:104F60003E7908123613750A00780A122A4DE509AF
:104F7000F50A780A122A4DEEF50A780A122A4D909F
:104F800018F61228A8901DB1E0F97C087D1A901D32
:104F9000D31262EA123C1F7407122A7702506E7411
:104FA000016A600302507379081236137B00EEFA2F
:104FB000F9123C6102506E74016F600874026F60F8
:104FC00003025073EA600574036A7047790212366F
:104FD00013901DB1E0F99018F6122D04123C0DE962
:104FE000F8901905E0A2E34010E9700D901971E006
:104FF00004F06404700312508D740365087071909E
:105000001972E0F9740129F0E9C394054062125065
:105010008D805D74016A705B74016F790A702E1265
:1050200036137401122D33E4F07402122D3374031D
:10503000F004122D33E4F0A3F0A3F0A3F0740812EF
:105040002D33E4F0AA18AB1912413580361236130D
:10505000901DA71228A87A007B20125A3F122A77A7
:10506000901DB1E0F99018F6122D04123C43E9F8B6
:10507000E860109080E31228A87A017B00125A3F62
:10508000122A77740B122A777F030227619018F691
:10509000E4F0A374F8F0A374FFF0A37407F0227493
:1050A000F61224E6E9FFEAFE7AD1F91232418A8249
:1050B0008B83E5824583702A7A027B00123223EAD1
:1050C0004B700E7A107B009018FAE0F9123265806E
:1050D000148A828B8374D1F0EFA3F0EEF912322F91
:1050E0008003EFA3F00252ED74F71224E6890890D2
:1050F00004CA1275EDFF901D94E0F47003A3E0F470
:1051000070319006B2E0901D94F0A3E4F080248EFC
:10511000828F83A312614E600F8E828F83A3A312AE
:10512000614BFAA90812368B8E828F83126014E8C5
:10513000FEE9FFEE4F70D8901D94E0F47003A3E0F9
:10514000F4600A901D94E0FAA90812368B124243CB
:105150009018C412586312423D7F0102276174F017
:105160001224E6890B8C0C75090075080074101266
:105170002D331260147412122D3312685EFD8047B5
:10518000125228F50EA3E0F50FAE08EE2EFEE43322
:10519000FFEA2EF582EB1264F5650E7004A3E0655C
:1051A0000F7019AE09EE2EFEE433FFEC2EF582ED02
:1051B0003FF583E50EF0A3E50FF00509050AE50AC2
:1051C000C3950C40BB0508E508C3950B5005750A4F
:1051D0000080EBA90980007F0802276174F4122483
:1051E000E6890B7D00740C122D3312601480010DC2
:1051F000EDC3950B502E750A008002050AE50AC31F
:105200009C50ECED25E0FEE433FFEA2EF582EB3F07
:10521000126A5712522865087004A3E0650970DB12
:105220007901800279008014AE0AEE2EFEE433FF8D
:10523000E82EF582E9125A2922122A777F040227E2
:105240006174F61224E61252D77003A3E06D701752
:105250007508037509197808122A49EEFA1237C33E
:105260007402122A77801A7508027509807808126C
:105270002A498A0889097808122A491252C5122A2D
:1052800077806A74F61224E61252D77003A3E06D99
:1052900070177508107509197808122A49EEFA1264
:1052A00037C97402122A77801A7508037509807845
:1052B00008122A498A0889097808122A491252C50F
:1052C000122A778028EE240E125A26FD7C80126462
:1052D000FD1237E7740422EAFEEBFF126514FCE4CA
:1052E00039FD9018C4E06C227402122A777F020202
:1052F000276174F61224E674FE122B25EAFEEBFFFA
:10530000851882851983E412539612664FFBECFAD6
:1053100088828983A3A3E0F97509007508006005F8
:1053200074FF697005750882803E9018C4E06A7049
:1053300003A3E06B701BAA18AB191248F1E9FA85B8
:10534000188285198312686970037508838A098039
:1053500017901A13E06004640170057508818008D5
:10536000E0640270037508808518828519831268CD
:105370005EFDA908EEFAEFFB1237CFE50960148550
:1053800018828519831268696009851882851983D6
:10539000126E860252E8F0A3F01274C62274F21262
:1053A00024E6EAFEEBFF750800750900126510F5AA
:1053B0000AE439F50B124243EA650A7003EB650B08
:1053C00070121248DFE914F50879017A397B191255
:1053D00048D98003750980EE240E1264F2F50C782A
:1053E0000C122A4D750C39750D19780C122A497852
:1053F00008122A4D780A122A49E509F50878081298
:105400002A4D1262D91264F2F97A057B801237D5DF
:10541000740702772B74F61224E6E9FF7E008032CF
:105420008A828B83E0F508A3E0F8E4C8F9E5082850
:10543000E439F509EE25E0F8E433F9EC28F582EDDE
:1054400039F583E508F0A3E509F0EA2402FA5001F2
:105450000B0EEEC39F40C90252ED74E81224E674AD
:10546000FC122B258A168B177511007402122D332E
:10547000E4F0A31266571253963517125A37F50BFC
:10548000850A82F583127891FEE439FF850A8285C8
:105490000B83A3A3E0FA850A82850B83A3A3A3E071
:1054A000F9EAF508E439F509EEFAEFFB1242DFE913
:1054B00064016016EEFAEFFB1242DFE970389018D3
:1054C000C4E06E7003A3E06F602C12722D122A4D9F
:1054D000E4F508F5097808122A497808122A4D904F
:1054E00018C41228AC7508807808122A4D12583159
:1054F000122A77025810850A82850B83A3A3A3A3DF
:10550000E0F510E50A2405F50A5002050BE51060E8
:10551000281277A27402122D331258637402122DCE
:105520003312686960137402122D33125827A910C0
:105530001236BB8A0A8B0B8003751000850A8285A0
:105540000B8312773C60241277A285188285198319
:10555000EAF0A3EB12686FE849601085188285199C
:1055600083125827A90F1236BB8003750F009004D1
:10557000CA8052850A82850B83A3A3A3A3A3A3A3F6
:10558000A3E4F0A3F0AA0AAB0B851482851583A3CC
:10559000A3E0F812614BF912322F85128285138332
:1055A000E0C0E0A811743928F582E43419F583D0FD
:1055B000E0F00511A2005007AA12AB131232CB85FE
:1055C0001482851583E0F514A3E0F515E51445155F
:1055D000700302578D851482851583A312614E6076
:1055E000DE851482851583A3A3A3A3A3A3A3A3E0AD
:1055F000A2E050CB851482851583A3A3A3A31268D0
:1056000069851482851583A3A3601E12614FFA7900
:1056100001851482851583A3A3A3A312581A1249E6
:10562000448A128B13D200800F12581AA3A3A3E04E
:10563000F512A3E0F513C200E512451370030255FD
:10564000B4851282851383A3E065087004A3E06526
:1056500009600F74FF6508700474FF650960030238
:1056600055B4851282851383A3A3A3A3A3A3A31276
:1056700028AC851282851383A3A3A3A3A3A3E0FC74
:105680007404122D331262EAA91012369D740212AC
:105690002A77E9703C851282851383A3A3A3A3A371
:1056A000A3A3A3A3A31228AC851282851383A3A36B
:1056B000A3A3A3A3A3A3A3E0FC7402122D3312623D
:1056C000EAA90F12369D7402122A77E97003025577
:1056D000B4E50F2510C333240AFA7B001232238A63
:1056E0000A8B0BEA4B700302559A8A828B8374D221
:1056F000126A618A828B83A3A3E8F0A3E912770B75
:10570000A3E51012789BE50FF0E510602CEA240A5F
:10571000FAE4350BFB850A82850B8312585E74020E
:10572000122D33125851122A45AC10EC2CFCE433E4
:10573000FD126F5F122A77800D8A828B83A3A3A349
:10574000A3A3E4F0A3F0E50F7003025573A810E8DB
:1057500028F8E433F9E50A28F8E50B39F9E8240AD2
:10576000FAE439FB850A82850B83A3A3A312585E52
:10577000851882851983125851122A45AC0FEC2CDA
:10578000FCE433FD126F5F122A77025585E5116044
:105790002512722D122A4D750839750919780812CB
:1057A0002A49E511F5087808122A4D9018C41228E4
:1057B000AC7508008029EEFAEFFB1242DFE9702A8F
:1057C00012722D122A4D7508397509197808122A96
:1057D000497508007808122A4D9018C41228AC7830
:1057E00008122A4D125831122A777402122D3312E0
:1057F000686960087402122D33126E8685188285DE
:1058000019831268696009851882851983126E866A
:105810007404122A777F1002276112581E22E0F8C2
:10582000A3E0F583888222E0FCA3E0FDAA0AAB0B8B
:1058300022E5162402FCE43517FDE516240FF58257
:10584000E43517F583E0F97A067B801237D57407C3
:1058500022E0F50CA3E0F50D750E00780C22A3A351
:10586000A3A3A3EAF0A3EBF02274F11224E674F4EC
:10587000122B258A088B09ECFEEDFF740B122D33D9
:105880007403F0122AE71233C71263C27403122A98
:10589000E71233C1E9600A125A2E6010E064016019
:1058A0000B85188285198374840259DA8E828F835E
:1058B000A3A3A3A3A3A3A3A3E06013F46010125AAD
:1058C0002E7016EE24141264F26003F4700B851827
:1058D0008285198374820259DA1275B1E0642170ED
:1058E00002A3E060030259B1851882851983748C84
:1058F000F0125A2E600302599B7401122AEFEE2413
:105900000BFAE43FFB123F67E9600302599B123632
:10591000018A0A8B0BEA4B70030259DB8E0C8F0D48
:10592000750E00780C122A457C157D00126F5F12EF
:105930002A77850882850983A3A3E50A2415FCE458
:10594000350BFD74091229A51271E2C0E0E50A24A5
:105950001E125A13D0E0125E6BC0E0E50A241F123B
:105960005A13D0E0F0E50A2420125A137405F0EE21
:10597000240BFE50010FFAEFFB1248197D007C004A
:105980007900EEFAEFFB12378D9080E31228A87AA7
:10599000007B10125A3F122A778073125A1B122A68
:1059A0004D125A4A123F497401122A77E9702C802D
:1059B00014125A1B122A4D125A4A123F4F740112E6
:1059C0002A77E9700D851882851983E4F01235D1A4
:1059D00080098518828519837488F01271E2F50AAE
:1059E000780A122A4D7401122ADF880A890B780A74
:1059F000122A49E508240CF582E43509125A374485
:105A000080F50B780A122A491263A4122A77740CC3
:105A1000026D75F582E4350BF58322EE2414125ADB
:105A200026F50A780A22F582E43FF583E022EE2487
:105A300013125A26640322F583E0F50AA3E02290AC
:105A400018FAE0F912337F740422EE240BFCE43FD1
:105A5000FD8E828F83A3A3A3A3A3A3A3A3A31272E8
:105A60001D8E828F83A3A3A3A3A3A3A3A3E0F922E4
:105A7000C082C08374F3122B25851882851983E4B4
:105A8000F004122D331258637403122D33AA82AB23
:105A900083123AF9AA18AB19123B35740D122A7702
:105AA00002644674F61224E61264EBF8A3E0125A7C
:105AB000E6F890190BE058F508A3E059F509E50858
:105AC0004509601F7808122A499018C41228ACEEC4
:105AD000240E1264F2FD7C001264F91237E17404A2
:105AE000122A770252ED8882F583125AEE22E0FAEA
:105AF000A3E0F9EA2274EA1224E674DB122B258A69
:105B0000148B157512007513001274C23515F583C8
:105B100012614FF50EAC18AD197A007B00799C121A
:105B20003C737A047900123B5FEAF50C8518828594
:105B30001983E02AF0F8E50EC3984003025D19E0EE
:105B4000C3950EF509C394044003750903E509756F
:105B5000F01AA4FAABF01232C58A128B13EA4B701A
:105B600003025D1C750D00AE12AF13850E08025BBB
:105B7000F97C087D0079FFEE240AFAE43FFB12323B
:105B80000B850A82850B83A3A3A3A3E0702D850A4E
:105B900082850B83126869700C1273F6F0EE24187C
:105BA0001273F98010125DA1F0901BB5E014C0E0F3
:105BB000125D84D0E0125DD4E48034901BB5E00423
:105BC000C0E0125D84D0E0125DC7C39403EE4003D1
:105BD000025C821274B77402125DC7640170030222
:105BE0005C8FEE2415125DA4F0EE2416125DA4F075
:105BF000EE241AFE50010F050DE50DC39509400373
:105C0000025CBAE508C3950C4003025C98AA087BC5
:105C100000123BAD8A0A8B0B0508901BA2125DADEA
:105C2000850A82850B83126014125D7CF583E8F08F
:105C3000A3E9125DE4850A82850B83A3A3A3A3A332
:105C4000A3A3A3A3A3E0C0E0125D72D0E0F07401AF
:105C5000122D33E4F0850A82850B831260147402DE
:105C6000122D33E81275FB7401122AE7123B23E967
:105C700064016003025B717404122D33125D9202A1
:105C80005B81125DA2125DC764036003025BE2EEFA
:105C900024151273F9025BE8E50CC3950E400575F7
:105CA0000800801DE50EC3950CF5088014125DA157
:105CB000F0EE241AFE50010F050DE50DC3950950B5
:105CC0005B740E122AEFAA087B007987123C7305D9
:105CD000087418122D33125DAD7410122D33125D3D
:105CE00092EE2412F8E43FF9740E122D331262EA98
:105CF00088828983EAF0A3EB125DD47403125DE419
:105D0000741D122D33E0C0E0125D72D0E01276D81F
:105D1000E84970991273F68097750900750A007842
:105D20000A122A4D7812122A497809122A4DE50ED4
:105D3000F5097809122A4D7405122D33E0FD7C0017
:105D4000E5141262673515FBE5141273E73515F596
:105D500083E0F912381D7405122A77E512451360A5
:105D600007AA12AB131232CB7425122A777F0E02C8
:105D70002761EE2419F582E43FF58322EE2412F523
:105D800082E43F22125D8822EE2418F582E43FF57A
:105D90008322AC82AD83EE240AFAE43FFB1233C7C0
:105DA00022EE2414F582E43FF583740122126A6E18
:105DB0008E828F83E8F0A3E9F07CB67D1BEE126241
:105DC000673FFB1233C722F0850A82850B83A3A3AA
:105DD000A3A3E02212743A7402F0EE2416F582E4D2
:105DE0003FF58322F0EE2417F582E43FF583740239
:105DF000F0125D8874FFF02274F61224E674F91232
:105E00002B251274BE350912794F851882851983A6
:105E1000122D1C8E828F83A3A3A3A3E0C0E0740481
:105E2000122D33D0E01276EDF87405122D33740183
:105E3000F07406122D337401F09018CEF09018D73C
:105E4000041274DCFAA3E0FB9018CF125863E890B8
:105E500018D8125E6B9018CDF0AA18AB19123C132B
:105E6000E96003123C1974070252EAF0E508240FB6
:105E70001271EA2274F21224E674FF122B257508BF
:105E8000007E007F001241658A0A8B0B125FF4804E
:105E9000080508126000126014E84970F4901A13A3
:105EA000E0600764016003025F6C125FF480061219
:105EB0006000126014E8496033888289831262EAC4
:105EC000901BA2E06A7003A3E06B600A12600012EC
:105ED00062EAEA4B70D988828983126014901BA20F
:105EE000E0687003A3E0697003025F6C7A167B00C0
:105EF0001276706077901BA21260148A828B83E8FE
:105F00001275FB901B97126B50F01242C7E98E82FC
:105F10008F83A3A3A3A3A3F0901DB2E08E828F83EF
:105F2000A3A3A3A3A3A3F07CB67D1BEE240B125D59
:105F300099AA18AB1979411239D985188285198324
:105F4000E060089018C4126014800478FE79FF8E17
:105F5000828F83A3A3A3A3A3A3A3E81275FBEE12CE
:105F600060083F1260188E0A8F0B05089018D8E061
:105F7000F8E508C398500479008027E508C398F92C
:105F8000C39406400279057800800DE50A12600886
:105F9000350B125A37F50B089018D8E0FAE8C39A77
:105FA00040E97509007809122A4D780A122A49E950
:105FB000F5097809122A4D9018D8E0F509780912E8
:105FC0002A4DAD087C007ACF7B189018CDE0F912ED
:105FD00038177405122A77901A13E0600464017070
:105FE0000BEE4F6007EEFAEFFB1232CB123C197446
:105FF0000102772B1241658A0C8B0DA80CA90D228A
:10600000E812600839F583222414F582E422851809
:1060100082851983126A6E22F583E50AF0A3E50BE7
:10602000F02274F01224E674FF122B258A0A8B0BDF
:106030007E008E0E8E0F1274C2125A1612614FFF1E
:10604000AC18AD197A007B00799D123C73851882DB
:10605000851983E0F8EFC39840030260F6E0C39F20
:10606000FEC3940B40027E0AEE75F007A4FAABF073
:1060700012625F8A0E8B0FEA4B6079750C00801AF2
:10608000850882850983A3A3A3A3A37403F0E5086D
:106090002407F50850020509050CE50CC39E50566F
:1060A000AC08AD09E50C2FFAE43400FB798B123C07
:1060B00073850882850983A3A3A3A3A3E0146008C2
:1060C00014601314601F80B8850882850983A3A318
:1060D000A3A3A3E480B7850882850983A3A3A3A310
:1060E000A3740180A8850882850983A3A3A3A3A321
:1060F000740280997E007508007808122A4D780E87
:10610000122A49EEF5087808122A4DEFF5087808AA
:10611000122A4D7405122D33E0FD7C00E50A12624F
:1061200067350BFBE50A1273E7125A16E0F91238CD
:10613000237405122A77E50E450F6007AA0EAB0FF0
:106140001232CB7401122A770251D7125820A312AF
:10615000581EE02274EE1224E674FE122B258A0CDF
:106160008B0D7510007511001274C2350DF5831278
:10617000614FF50AAC18AD197A007B0079A3123F84
:106180005512600EC3E50A98E4995074851882850B
:106190001983A80AE0C398FEA3E09400FFC3EE941D
:1061A00004EF940040067E037F008004EE4F6050B1
:1061B000EEFAEFFBEA75F015A4FAA8F075F015EB0E
:1061C000A42812625E8A108B11EA4B6033750B00B3
:1061D000750E00801FAC08AD09A80AE50E28FAE488
:1061E0003400FB79A2123F55E5082415F50850024A
:1061F0000509050EC3E50E9EE49F40D9EEF9800522
:10620000750B8B79007508007808122A4D781012EA
:106210002A49E9F5087808122A4DE50AF5087808B0
:10622000122A4D7405122D33E0FDAC0BE50C126201
:1062300067350DFBE50C1273E7350DF583E0F912B8
:1062400038297405122A77E51045116007AA10ABAA
:10625000111232CB7402122A777F0A022761FB12D5
:1062600032C58A088B09222402FAE42274F6122429
:10627000E674FF122B25EAFEEBFF1262C51262EAFA
:106280008A82F583A3A3A3A3A3A3A3A3E0F9123C4B
:1062900037E9851882851983F07508007808122A75
:1062A0004D7401122ADF880889097808122A497575
:1062B00008357509807808122A491262CD122A77AA
:1062C00074010252EAEA1274C73FF583227901127F
:1062D00062D9FAE43F1263BB22EE2402FCE43FFDE4
:1062E000EE240F2285188285198312721D2274F400
:1062F0001224E674FA122B251274BE126F51127515
:10630000EDFFEEFAEFFB123AFFE9600F1263C2EE07
:10631000FAEFFB1233C1E96401700A7401122D33E4
:10632000E4F0A380097401122D33EEF0A3EF12778D
:1063300018F8A2E650087403122D337401F0E8A295
:10634000E750087404122D337401F07405122D33D4
:10635000E4F004122AE7123C67E985188285198364
:10636000F09080E7122D041242617A007B00124205
:106370006D7A007B00124267750A00780A122A4D76
:106380007401122ADF880A890B780A122A49750AD1
:1063900034750B80780A122A491263A4122A777482
:1063A000060252397901E5082402FCE43509FDE5CD
:1063B00008240FFAE435091263BB22FB12378174FB
:1063C000052212423D8A0A8B0BAC0AAD0B2274F6F1
:1063D0001224E674FF122B251264EBF8A3E08882E6
:1063E000F583E0F509A3E0F508A909123C25E98544
:1063F0001882851983F0901A13E0700B74016508F8
:106400007005A9091238E3EE240B1264F2702775A7
:1064100008007808122A4D7401122ADF88088909B9
:106420007808122A497508367509807808122A49B1
:106430001262CD122A770262C0C082C083901A1302
:10644000E070031238E9D083D082022A2974F41252
:1064500024E674EF122B25EAFEEBFF126510F50817
:10646000E439F5099018C4E06A7003A3E06970523A
:10647000A818A919880A890B780A122A49750A11DD
:10648000750B00780A122A497C007D007A817B0016
:1064900012334F7404122A77E97027750A00780ABC
:1064A000122A4D7401122ADF880A890B780A122AEF
:1064B00049AC08AD091264F91237DB7403122A776C
:1064C0008024750A11750B80780A122A49780812FF
:1064D0002A49EE240E1264F2FD7C841264F912370C
:1064E000E77404122A777411025239EAFEEBFFEACC
:1064F0002413F582E4125A29221264FD22EE2402AA
:10650000FAE43FFBEE240FF582E43FF583E0F92245
:1065100012651422EA2413F582E43FF583126DE735
:106520008882F583E0FAA3E0F8E4C8F9EA28227447
:10653000F11224E674EB122B25EAFEEBFF1274C273
:1065400012664FFAE4CAFBEC2AF5089018C4E06C16
:106550007003A3E06B60030265F488828983A3A3C0
:10656000E09410500F88828983A3A3E08518828568
:10657000198380088518828519837410F0E0C0E0C3
:106580007404122D33D0E01275DCA982AA83890C21
:106590008A0D750E00780C122A457407122D33E00F
:1065A000FC7D007408122D33AA82AB83126F5F1238
:1065B0002A777404122ADF880A890B780A122A497A
:1065C000750A11750B00780A122A497C007D007A41
:1065D000817B001233497404122A777404122D331C
:1065E000E09019036005E0D2E48003E0C2E41266A3
:1065F00057E480088518828519837484F0E0C0E030
:106600007401122D33D0E0F07402122D33E508F03E
:106610007403122D33E508F01266483F12723612E9
:106620002A4D7402122ADF880889097808122A493B
:106630007508147509807808122A4979031262CF07
:10664000122A777415026D75EE240EF582E4223F4E
:10665000127600FCA3E022F085188285198322744B
:10666000F61224E674E0122B25EAFEEBFF901BA441
:10667000E064086008E064046003026843AC18AD9D
:1066800019123769901A13E06402702712423D74A0
:1066900002122D33AC82AD831233C1E9601512684A
:1066A00048851882851983E0687003A3E069700348
:1066B0000268431244117402122D33AC82AD83126E
:1066C00062E412430FE96401700302684374181214
:1066D0002AE712424F7402122D33AC82AD83741834
:1066E000122AE71233C1E9602D1242498A088B0948
:1066F000A808A909851882851983E0687003A3E0BA
:1067000069601312600E901B98E81275FB7A987BF3
:106710001B794B1239DF901A13E060046401706733
:10672000126848EE24111264F2687003A3E06960F5
